:100000000C94FB010C9486270C94AD270C94D427F8
:100010000C94FB270C9423020C9423020C942228AA
:100020000C9423020C9423020C9481260C941D251D
:100030000C9423020C9423020C9423020C942302AC
:100040000C9423020C9423020C9423020C9423029C
:100050000C9423020C9423020C9423020C945E282B
:100060000C9423020C9423020C9423020C9423027C
:100070000C9423020C9423020C9423020C9423026C
:100080000C9423020C9423020C9423020C9423025C
:100090000C94A70A0C9423020C9423020C942302C0
:1000A0000C9423020C9423020C94230283298629A6
:1000B000752979297F29A729A729A7298A298E297E
:1000C000922998299C29A729A2292C305800534409
:1000D000206572726F72436F64653A203058004E2B
:1000E0006F206572726F7220666F756E642E0043AA
:1000F000616E2774206F70656E20726F6F7420645C
:1001000069726563746F72792E00496E76616C69ED
:100110006420666F726D61742C207265666F726DFB
:1001200061742053442E004E6F20636172642C2052
:1001300077726F6E6720636869702073656C6563A2
:10014000742070696E2C206F722053504920707299
:100150006F626C656D3F0043616E2774206163635D
:1001600065737320534420636172642E20446F20B2
:100170006E6F74207265666F726D61742E006874A4
:1001800074703A2F2F6D70666C6167612E676974A9
:100190006875622E636F6D2F537061726B66756E3A
:1001A0002D4D50332D506C617965722D5368696502
:1001B0006C642D41726475696E6F2D4C6962726159
:1001C00072792F2354726F75626C6573686F6F74E8
:1001D000696E6700496620796F75206765742074C1
:1001E000686973206572726F722C20796F75206C4C
:1001F000696B656C7920646F206E6F74206861761E
:100200006520612073642E626567696E20696E20C7
:10021000746865206D61696E20736B657463682C0A
:10022000205365652054726F75626C652053686F4A
:100230006F74696E6720477569646521000000006E
:10024000000000000000000000200020002000202E
:1002500000080008004000300028003000100010A6
:10026000006000380030003800180018008000409E
:10027000003800400020002000A000500040005046
:100280000028002800C000600050006000300030EE
:1002900000E000700060007000380038000001804D
:1002A0000070008000400040002001A0008000900D
:1002B00000500050004001C000A000A000600045B8
:1002C000006001E000C000B000700070008001001C
:1002D00001E000C00080008000A00140010001E0BA
:1002E0000090009000C001800140010001A000A02A
:1002F00000080B00020202010009040000010202D2
:100300000000052400100105240101010424020657
:1003100005240600010705810310004009040100BF
:10032000020A0000000705020240000007058302E0
:1003300040000012010002EF0201406E2A0380001B
:1003400001010203014261726520436F6E647563AF
:100350007469766500546F75636820426F617264DA
:1003600000040309040000000200090F0000030458
:1003700001000C0000000000000000000000000070
:10038000000000000408020110408040102040805E
:1003900040800802040180402010020110801020DB
:1003A0004040200404040404030405020202020481
:1003B0000302020202060606060606040402020200
:1003C0000404000000002300260029002C002F0058
:1003D00000000000250028002B002E003100000046
:1003E0000000240027002A002D003000C204AF05C1
:1003F000BE097D20A22111241FBECFEFDAE0DEBFAF
:10040000CDBF12E0A0E0B1E0E8E7F1E602C0059060
:100410000D92A03CB107D9F727E0A0ECB2E001C0F3
:100420001D92A130B207E1F711E0CBEFD1E004C09B
:100430002197FE010E94762DC63FD107C9F70E9481
:100440004B280C94BA300C940000CF93DF93EB014F
:10045000BC0181E996E00E94DB214AE050E0BE0148
:1004600081E996E0DF91CF910C94CA22CF93DF937C
:1004700097FF02C080E090E0EC018536910514F012
:10048000C4E6D0E0BE010D2E000C880B990B0E9433
:10049000EC2B20E030E048EC52E40E94422B0E941A
:1004A000EB2C9B01AC0160E070E080E89FE30E94D0
:1004B000D52A20E030E04EE753E40E94782C0E94D9
:1004C000BB2B88EC92E00E941C1ED093C102C0930B
:1004D000C002BE018FE191E0DF91CF910C94250223
:1004E0000F931F938091C6029091C7020197B1F5B7
:1004F0008091C0029091C102843691057CF50E94E2
:10050000A8280091C2021091C3022091C402309128
:10051000C502601B710B820B930B0E94EA2B20E03B
:1005200030E048EC52E40E94782C20E030E04AE7CA
:1005300054E40E94422B0E94B42B6536710514F0DE
:1005400064E670E08091C0029091C102861797071F
:1005500029F0CB011F910F910C9436021F910F913E
:100560000895CF93DF93EC0188EC92E00E94151C74
:10057000882321F088EC92E00E94571DD09301015E
:10058000C09300010E94A8286093C2027093C30226
:100590008093C4029093C50283E090E09093C702D9
:1005A0008093C602BE018FE291E0DF91CF910C945F
:1005B0002502CF93DF93EC0188EC92E00E94151C9A
:1005C000882321F088EC92E00E94571D6C2F88EC64
:1005D00092E00E94291FC0930001D09301010E9464
:1005E000A8286093C2027093C3028093C4029093C0
:1005F000C50281E090E09093C7028093C60282E337
:1006000090E00E943602BE0189E591E0DF91CF9132
:100610000C942502CF93DF93EC0188EC92E00E94CA
:10062000C01D81E090E09093C7028093C602BE0196
:1006300088E691E0DF91CF910C942502CF93DF9370
:10064000EC0188EC92E00E94DC1C82E090E0909348
:10065000C7028093C602BE0188E791E0DF91CF9187
:100660000C9425020F931F938091C6029091C702AC
:10067000039719F50E94A8280091C2021091C302A5
:100680002091C4023091C502DC01CB01801B910B8B
:10069000A20BB30B883E9340A105B10570F068EE44
:1006A00073E086E891E00E9425028091000190911C
:1006B00001011F910F910C94D9021F910F91089580
:1006C000CF93DF938FE195E00E949F05811106C0D3
:1006D0000E943203DF91CF910C9470028FE195E07C
:1006E0000E9463088FE195E00E942705823080F721
:1006F0008091C6029091C702019739F488EC92E08C
:100700000E94151C813009F04EC0C0E0D0E06C2F73
:100710008FE195E00E945705882379F1BE018BEAAD
:1007200091E00E94250261E08DE00E94E429809121
:10073000C6029091C7028130910559F48091000161
:10074000909101018C179D07A1F4CE010E941E0318
:1007500024C08230910559F48091000190910101EB
:100760008C179D0731F4CE010E940A0316C0892B15
:10077000A1F4CE010E94B10210C06C2F8FE195E070
:100780000E947205882349F0BE0189EB91E00E9426
:10079000250260E08DE00E94E4292196CB30D1054E
:1007A00009F0B5CF95CF1092C7021092C6026091A2
:1007B00000017091010188EC91E00E942502A5CF13
:1007C000EC018C01095B1D4FF80180818823A9F1A0
:1007D00067E571E081E996E00E94E821F8018081F7
:1007E000803231F467E271E081E996E00E94E8210D
:1007F000F80180818823A9F16EEC70E081E996E030
:100800000E94B72140E150E0F801608181E996E063
:100810000E9462226AEC70E081E996E00E94B721B2
:10082000C55BDD4F488150E060E070E020E130E0E2
:1008300081E996E00E94692214C08D81811103C074
:100840006AE071E00AC0C95DDD4F8881811103C093
:100850006FEE70E002C06FED70E081E996E00E94FB
:10086000E8210E944928FDCF0F93CF9361E08DE0EE
:100870000E94A82940E051EE60E070E081E996E036
:100880000E948D2181E996E00E9493218823D1F373
:1008900060EE71E081E996E00E94FA2120E530E007
:1008A00045E06CE175E086E195E00E94751A8823C9
:1008B00009F461C086E195E09093D0028093CF0265
:1008C00086EF94E00E94D70F61E08FEC92E00E94E7
:1008D0003218882351F06FEC72E086EF94E00E94AA
:1008E000B00C882309F447C008C060E08FEC92E0A8
:1008F0000E9432188111EFCF3EC08091F6048077BC
:10090000D1F186EF94E0909346068093450604E08B
:1009100024E148E26CE58FE195E00E94FB0781113C
:1009200006C06CEF71E081E996E00E94FA2164E074
:100930008FE195E00E948D0568E28FE195E00E94CD
:100940006E0664E18FE195E00E94960688EC92E0E5
:100950000E941320C82F40E060E088EC92E00E94E3
:10096000161ECC2361F06C2F70E084E192E0CF91F1
:100970000F910C9425028FEC92E00E94E003CF913E
:100980000F9108951092D4021092F6041092F70479
:1009900084E68093160510921B0580E580931C0564
:1009A00010921D050895FC0188E2818384E1828311
:1009B00084E0838381E08483858390E1968320E2D1
:1009C00027838087818792872387848795879FEFF6
:1009D00096872FE02787208B118A128A838B848B3E
:1009E000958B968B178A108E118E21E1228F938F13
:1009F00090E3948F9CEC958F168E178E10A211A207
:100A000012A29CE5908313A215A284A3DF01A55A2C
:100A1000BF4F11961C921E9212961D921C92E15A83
:100A2000FF4F108208956D3020F4FC0124A120FFB7
:100A300002C080E00895FC01E55AFF4F808191815A
:100A400002C0969587956A95E2F7817008950F9395
:100A50001F93CF93DF93FC0124A120FD0EC08C01D6
:100A6000D0E0C0E06D2FC8010E9413058111CF5F57
:100A7000DF5FDD30B9F78C2F01C08FEFDF91CF91B1
:100A80001F910F9108956D3020F4FC0124A120FFE7
:100A900002C080E00895FC01E35AFF4F80819181FC
:100AA00002C0969587956A95E2F7817008951F9325
:100AB000CF93DF936D3088F4FC0124A120FD0DC09D
:100AC000162FEC010E944305811107C0612FCE0152
:100AD000DF91CF911F910C94130580E0DF91CF91AE
:100AE0001F9108951F93CF93DF936D3020F4FC0185
:100AF00024A120FF02C080E00CC0162FEC010E9450
:100B00004305882331F0612FCE010E94130591E047
:100B10008927DF91CF911F9108951F93CF93DF9382
:100B2000FC0124A120FD07C0162FEC0162E0812FFB
:100B30000E94A8291EA3DF91CF911F910895FC0167
:100B4000E15AFF4F2081211108C0FC0186A10E94BB
:100B5000132A21E0892B09F020E0822F08958FE1EC
:100B600095E00C94D3040F931F93CF93DF93EC0184
:100B7000162F68818FE795E00E943709612F8FE774
:100B800095E00E94EE0860E08FE795E00E94410941
:100B900041E068818FE795E00E94B8099CA181300F
:100BA00041F49D7F9CA38FE795E00E949D08082F4C
:100BB00002C092609CA38CA1113021F407FF02C0F7
:100BC000886001C0877F8CA312508CA1123020F462
:100BD000002311F0806101C08F7E8CA3802FDF91F4
:100BE000CF911F910F910895CF93DF93FC0124A122
:100BF00020FD0DC0EC016EE50E94B3058BA3482FCC
:100C0000407C6EE5CE01DF91CF910C940A06DF9116
:100C1000CF910895FF920F931F93CF93DF93EC0131
:100C2000062FF42E6E3541F4842F8F7319F081E076
:100C30008DA30AC01DA208C0633730F41DA1112383
:100C400021F00E94F40501C010E068818FE795E073
:100C50000E943709602F8FE795E00E94EE086F2D04
:100C60008FE795E00E94EE088FE795E00E94BB09B0
:100C70009CA1882311F0926001C09D7F9CA3112349
:100C800041F0CE01DF91CF911F910F91FF900C9415
:100C90004F06DF91CF911F910F91FF900895FC01B6
:100CA00024A120FD04C043A16EE50C940A0608951A
:100CB0006D3040F4FC0124A120FD04C0660F6F5B81
:100CC0000C940A0608956D3040F4FC0124A120FD27
:100CD00004C0660F6E5B0C940A060895FF920F9392
:100CE0001F93CF93DF93FC0124A120FD19C0062F91
:100CF000EC01F5A0F1100E94F40510E0402F612FE7
:100D0000CE010E9458061F5F1D30C1F7FF2041F041
:100D1000CE01DF91CF911F910F91FF900C944F0660
:100D2000DF91CF911F910F91FF900895FF920F9344
:100D30001F93CF93DF93FC0124A120FD19C0062F40
:100D4000EC01F5A0F1100E94F40510E0402F612F96
:100D5000CE010E9463061F5F1D30C1F7FF2041F0E6
:100D6000CE01DF91CF911F910F91FF900C944F0610
:100D7000DF91CF911F910F91FF900895FF920F93F4
:100D80001F93CF93DF93EC018B01FDA0F1100E9424
:100D9000F405F80143816BE2CE010E940A06F801D6
:100DA00044816CE2CE010E940A06F80145816DE2A1
:100DB000CE010E940A06F80146816EE2CE010E9431
:100DC0000A06F80147816FE2CE010E940A06F80187
:100DD000408560E3CE010E940A06F801418561E387
:100DE000CE010E940A06F801428562E3CE010E940C
:100DF0000A06F801438563E3CE010E940A06F80162
:100E0000448564E3CE010E940A06F801458565E346
:100E1000CE010E940A06F801468566E3CE010E94D3
:100E20000A06F801478567E3CE010E940A06F80129
:100E3000408968E3CE010E940A06F801418969E30E
:100E4000CE010E940A06F80142896AE3CE010E949F
:100E50000A06F80143896BE3CE010E940A06F801F5
:100E600044896CE3CE010E940A06F80145896DE3CE
:100E7000CE010E940A06F80146896EE3CE010E9467
:100E80000A06F80147896FE3CE010E940A06F801BD
:100E9000408D60E4CE010E940A06F801418D6BE5A9
:100EA000CE010E940A06F801428D6CE5CE010E9437
:100EB0000A06F801438D6DE5CE010E940A06F8018D
:100EC000458D6BE7CE010E940A06F801468D6CE75E
:100ED000CE010E940A06F801478D6DE7CE010E94FF
:100EE0000A06F80140A16EE7CE010E940A06F80149
:100EF00041A16FE7CE010E940A06F801448D6EE51C
:100F0000CE010E940A068CA18E7F8CA3F80160811D
:100F1000CE010E946E06F8016181CE010E94960604
:100F2000F8016281CE010E948D05FF2041F0CE01C3
:100F3000DF91CF911F910F91FF900C944F06DF919D
:100F4000CF911F910F91FF900895CF93DF93EC0104
:100F500062E00E94B30563E0CE010E94B3058CA15C
:100F600080FD0BC081FD0CC082FD0DC083FD0EC055
:100F700084FD0FC080E090E00EC086E090E00BC0E2
:100F800082E090E008C083E090E005C084E090E05B
:100F900002C085E090E0DF91CF910895CF93DF9379
:100FA000EC0143E660E80E940A066DE5CE010E946E
:100FB000B3059CA1843211F0946001C09B7F9CA377
:100FC00061E0CE010E94B3059CA187FF02C098603A
:100FD00001C0977F9CA3CE010E94A507069739F018
:100FE000CE010E94A507892B11F080E001C081E0AD
:100FF000DF91CF910895DF92EF92FF920F931F93AD
:10100000CF93DF93EC01D62EF42EE22E62E082E045
:101010000E94A82962E083E00E94A8291AE082E0E9
:101020000E94132A892BC9F483E00E94132A019796
:10103000A1F461E083E00E94A82960E083E00E94BF
:10104000E42961E070E080E090E00E94D92862E04D
:1010500083E00E94A829115011F78FE795E00E94C4
:101060002D0986EA8D0D843008F4D8828CA18E7FFC
:101070008CA3CE010E94CE07182F8823D9F0BE0181
:101080006F5F7F4FCE010E94BE0689818F1521F0D0
:101090006F2DCE010E946E068A818E1521F06E2D75
:1010A000CE010E9496068B81801721F0602FCE0121
:1010B0000E948D05812FDF91CF911F910F91FF909D
:1010C000EF90DF900895FF920F931F93CF93DF93DC
:1010D000DC0194962C9120FD1FC0EC01FC01E15A2B
:1010E000FF4F108232978C01055A1F4FD8018D9106
:1010F0009C919183808360E0CE010E94B305F82E1D
:1011000061E0CE010E94B30590E0982F88278F0DF3
:10111000911DF80191838083DF91CF911F910F91F1
:10112000FF90089580E090E008958091AF0590E0F1
:101130002091B005821B910908959091B00580918E
:10114000AF05981750F4E92FF0E0EF54FA4F2081E3
:1011500030E09F5F9093B00502C02FEF3FEFC901D1
:101160000895E091B0058091AF05E81730F4F0E004
:10117000EF54FA4F808190E008958FEF9FEF08952C
:101180000895CF92DF92EF92FF920F931F93CF9328
:10119000DF937C01CB018A0120918B05222389F00A
:1011A000EB016B01C40ED51ECC15DD0569F069910C
:1011B000D701ED91FC910190F081E02DC7010995D7
:1011C000F3CF642F0E947E0AC801DF91CF911F9157
:1011D0000F91FF90EF90DF90CF900895CF93DF9322
:1011E0001F92CDB7DEB7698320918B052223D1F002
:1011F00020918C05203240F021E030E0FC01338367
:10120000228380E090E015C080918D05E82FF0E00A
:10121000E257FA4F998190838F5F80938D05809379
:101220008C0505C061E0CE0101960E947E0A81E036
:1012300090E00F90DF91CF910895FC01138212820C
:1012400088EE93E0A0E0B0E084839583A683B78323
:1012500085E492E09183808308951092B005109206
:10126000AF0510928D0510928C050C94C20981E097
:1012700080938B056093AE0510928D0510928C05BE
:1012800008950F93062F21E040918C056EE875E0DC
:101290008091AE050E94280A10928D0510928C054F
:1012A00010928B050F9108954F925F926F927F92EB
:1012B000AF92BF92CF92EF92FF920F931F93CF9373
:1012C000DF935C01F62ED42F28013901EE2021F1A5
:1012D0000E943709CE2DC43008F0C3E0C150C0F0E1
:1012E00028E0C29FC0011124A301920104C05695B9
:1012F0004795379527958A95D2F7CA01B901D50147
:10130000ED91FC910190F081E02DC5010995E6CFAA
:1013100060E0C5010E9441094D2FD13208F040E242
:101320002C2D61EB75E08F2D0E94E0091092B00525
:101330008093AF05DF91CF911F910F91FF90EF90B8
:10134000CF90BF90AF907F906F905F904F90089537
:10135000CF92EF920F931F93C22EE12C00E010E08A
:1013600098010E9454091F910F91EF90CF9008951A
:1013700021E00C94A80961E00C9441098FE795E005
:101380000C941D0910923E0681E080933C06109259
:101390003B0661E082E00E94E42961E083E00E9474
:1013A000E429E9EBF0E080818E7F808380818D7F6E
:1013B000808388E48093B80085E48093BC0008951E
:1013C000413208F043C090913E069111FCCF91E06C
:1013D00090933E0620933C062FEF2093D105109268
:1013E0001606240F2093150690933D0690913D0616
:1013F000880F892B80933D0680913B06813061F4F4
:1014000010923B0680913D068093BB008091BC000A
:1014100083FDF8CF85EC01C085EE8093BC00809100
:101420003E068130E1F380911606841710F4409156
:101430001606A7E1B6E0962FFB018E2F891B8417B5
:1014400018F48D918193F9CF842F089580E0089549
:101450000F93413208F04AC090913E069111FCCFA3
:1014600032E030933E0600933C063FEF3093D105C7
:101470001092160640931506562FA7E1B6E0FB0121
:101480003E2F351B341718F431913D93F9CF10924C
:101490003D0630913D06880F832B80933D06809159
:1014A0003B06813061F410923B0680913D068093AB
:1014B000BB008091BC0083FDF8CF85EC01C085EEB8
:1014C0008093BC00222321F080913E068230D1F32C
:1014D0008091D1058F3F79F08091D105803241F024
:1014E0008091D105803331F094E005C091E003C0D4
:1014F00092E001C093E0892F0F910895613298F432
:1015000020913E06243089F46093F305282FA5EF3F
:10151000B5E0FC018E2F821B861718F481918D9304
:10152000F9CF80E0089581E0089582E0089585ED87
:101530008093BC008091BC0084FDFCCF10923E06DD
:10154000089585EC8093BC0010923E0608951F928A
:101550000F920FB60F9211242F933F934F935F93E7
:101560006F937F938F939F93AF93BF93EF93FF936B
:101570008091B900887F803609F49EC078F5883262
:1015800009F45DC090F4803109F456C038F4882322
:1015900009F4F5C0883009F44FC0F5C0883109F46A
:1015A0004EC0803209F45FC0EEC0803409F46AC0D6
:1015B00058F4803309F457C0883309F0E4C08093AD
:1015C000D1050E94A10ADFC0803509F44FC08835DB
:1015D00009F45DC0883409F0D6C0D3C0883909F455
:1015E000C4C0A8F4883709F467C038F4883609F411
:1015F00063C0803709F460C0C6C0883809F4B5C03C
:10160000803909F45FC0803809F0BDC05BC0803B01
:1016100009F483C038F4803A09F466C0883A09F4C2
:101620007CC0B1C0803C09F4A4C0883C09F4A1C0CE
:10163000883B09F487C0A7C080913D0610C09091F7
:10164000160680911506981770F5E091160681E050
:101650008E0F80931606F0E0E95EF94F808180934B
:10166000BB0085EC83C08093D1058BC0E09116064A
:1016700081E08E0F809316068091BB00F0E0E95E5A
:10168000F94F808390911606809115066BC0E0910A
:10169000160681E08E0F809316068091BB00F0E065
:1016A000E95EF94F808380913C0681116AC081E038
:1016B00080933B0684EA5EC083E080933E061092EE
:1016C000D205CFCF8091D205803208F04EC0E09194
:1016D000D20581E08E0F8093D2058091BB00F0E0AF
:1016E000ED52FA4F8083BDCF0E94A10A8091D205AE
:1016F000803230F4E091D205F0E0ED52FA4F1082E2
:101700006091D20570E0E0913706F091380683EDE4
:1017100095E009951092D20536C084E080933E068C
:101720001092F4051092F305E0913906F0913A0613
:1017300009958091F305811105C081E08093F3053F
:101740001092F505E091F40581E08E0F8093F40589
:10175000F0E0EB50FA4F80818093BB009091F4054C
:101760008091F305981708F47CCF85E88093BC003E
:101770000AC085EC8093BC0010923E0604C0109213
:10178000D1050E94970AFF91EF91BF91AF919F9170
:101790008F917F916F915F914F913F912F910F901A
:1017A0000FBE0F901F901895CF93CFB7F8948091EC
:1017B0004206811127C0E4EBF3E08491E5E9F3E010
:1017C0009491E82FF0E0EE0FFF1FE252FC4FA5913D
:1017D000B491EC91E92321F461E081E10E94E429D4
:1017E00061E081E10E94A8298CB580618CBD8CB537
:1017F00080648CBD61E08FE00E94A82961E080E1F7
:101800000E94A829809142068F5F80934206CFBF35
:10181000CF91089580960C94CF15FC018281806849
:1018200082839F01245F3F4F448555856685778578
:10183000868197810C9443178F929F92AF92BF92AB
:10184000EF92FF920F931F93CF93DF93EC01888168
:1018500085FF02C000E058C088899989AA89BB89A0
:1018600081159E4FAF41B105A8F7CE010E940D0C26
:10187000082F882379F34C855D856E857F858E8161
:101880009F810E9452164B015C018E819F8125E051
:10189000B501A40180960E9412167C01892BD1F219
:1018A00080E092E0F7019C01119221503040E1F775
:1018B00011E0EE81FF818281181780F49701B50154
:1018C000A401410F511D611D711D808191810E94F4
:1018D0009F1B882309F4BECF1F5FEBCF90E0A0E0F1
:1018E000B0E029E0880F991FAA1FBB1F2A95D1F7E6
:1018F000488959896A897B89840F951FA61FB71F5C
:10190000888B998BAA8BBB8B802FDF91CF911F91F6
:101910000F91FF90EF90BF90AF909F908F900895A0
:10192000CF93DF93EC01262F4C895D896E897F89E7
:101930008E819F8180960E941216009761F02C8103
:101940003D812F70332745E0220F331F4A95E1F781
:10195000820F931F02C080E090E0DF91CF91089545
:10196000FC018081811114C080E2DF01982F1D925B
:101970009A95E9F777836683DB0115969C91903100
:1019800019F0903229F480E4808381E08283089505
:1019900080E008954F925F926F927F928F929F9214
:1019A000AF92BF92CF92DF92EF92FF920F931F936D
:1019B000CF93DF93EC014B018A0188818823D9F012
:1019C0009A8190FF18C01DC0D380D422A114B10405
:1019D00009F081C0D1107FC0892B8A2B8B2B09F491
:1019E00064C04C855D856E857F859201CF010E9424
:1019F000701687FF6AC08981826089838FEF9FEFAD
:101A0000C3C083FF15C0888D998DAA8DBB8D488971
:101A100059896A897B89841B950BA60BB70BA80192
:101A200060E070E0481759076A077B07A0F012C012
:101A300085FF11C0EE81FF818681978155E0880F77
:101A4000991F5A95E1F728893989821B930B8017D2
:101A5000910708F48C0178012E012CE0420E511CF4
:101A6000612C42E0742EE114F10409F455C0888918
:101A70009989AA89BB895C0121E0B2222881EE8183
:101A8000FF81AC01BD0139E0769567955795479583
:101A90003A95D1F725FF98CF848D958DA68DB78D7A
:101AA000480F591F6A1F7B1F24C026FF05C0848D65
:101AB000958DA68DB78D04C08C8D9D8DAE8DBF8DFF
:101AC0008C879D87AE87BF8706C0811104C088813F
:101AD000807711F590CF4C855D856E857F858E81F1
:101AE0009F810E945216AB01BC014D0D511D611D1D
:101AF000711DEE81FF81A114B10471F5E11482E042
:101B0000F80650F183A194A1A5A1B6A148175907E1
:101B10006A077B0729F420C0C8018E199F0934C0C9
:101B20009401808191810E94381B882309F463CF3E
:101B3000C12C82E0D82E8C0C9D1C88899989AA8999
:101B4000BB898C0D9D1DA11DB11D888B998BAA8B06
:101B5000BB8BEC18FD0887CFC3018A199B0967016D
:101B60008E159F0508F46C0120E0CF0180960E943D
:101B70001216009709F43FCFBC016A0D7B1DA60128
:101B8000C4010E94A32DD7CFDF91CF911F910F9158
:101B9000FF90EF90DF90CF90BF90AF909F908F908D
:101BA0007F906F905F904F900895FF920F931F93D7
:101BB000CF93DF931F92CDB7DEB78C01FC018089F4
:101BC0009189A289B3899C01AD0175E0569547952D
:101BD000379527957A95D1F7F22FFF70FF2E11F0E8
:101BE000611116C041E050E0BE016F5F7F4FC80138
:101BF0000E94CA0C813019F080E090E01AC0F80110
:101C000080899189A289B3894F96A11DB11D04C015
:101C10008096A11DB11DF801808B918BA28BB38B97
:101C2000F801868197818796F0E2FF9E800D911DD5
:101C300011240F90DF91CF911F910F91FF90089584
:101C40004F925F926F927F928F929F92AF92BF92CC
:101C5000CF92DF92EF92FF920F931F93CF93DF9378
:101C6000EC014A015B014C845D846E847F84A88111
:101C7000AA2309F491C0488959896A897B89481542
:101C800059056A057B0509F48DC081149104A104EE
:101C9000B10429F41C861D861E861F8678C0A3FF0A
:101CA0000BC0088D198D2A8D3B8D081519052A0545
:101CB0003B0508F471C014C0A5FF12C0EE81FF817E
:101CC0008681978125E0880F991F2A95E1F7A0E08A
:101CD000B0E088159905AA05BB0508F45DC057C09A
:101CE000EE81FF81848190E009968A019B01015079
:101CF000110921093109082E04C036952795179539
:101D000007950A94D2F775016401B1E0CB1AD108A6
:101D1000E108F10804C0F694E794D794C7948A9533
:101D2000D2F7C016D106E206F30620F0452B462B6B
:101D3000472B99F4A6FF05C0848D958DA68DB78D90
:101D400004C08C8D9D8DAE8DBF8D8C879D87AE8799
:101D5000BF878E01045F1F4F15C0C01AD10AE20A67
:101D6000F30AF7CF4C855D856E857F8598018E815E
:101D70009F810E94701691E0C91AD108E108F1080C
:101D8000181654F4C114D104E104F10459F7888AF7
:101D9000998AAA8ABB8A06C04C865D866E867F8633
:101DA00080E001C081E0DF91CF911F910F91FF9002
:101DB000EF90DF90CF90BF90AF909F908F907F90EB
:101DC0006F905F904F9008958F929F92AF92BF92C5
:101DD000FF920F931F93CF93DF93EC01F22E80E2DB
:101DE000DE011D928A95E9F7FB01868197819F8329
:101DF0008E835D834C83848C958CA68CB78C88866F
:101E00009986AA86BB86FA01EF70FF27DC019796B8
:101E100035E0EE0FFF1F3A95E1F7AD014E0F5F1F62
:101E2000DA011B962C9123FF03C0188280E063C067
:101E30009C012E0F3F1FD901D2962C912771288328
:101E4000DA011B963C91387111F4286028830B83CA
:101E50002F2D227319F02881217139F72F2D2F7022
:101E60002A83DC0193964D915D916D917C919697BB
:101E70004C8B5D8B6E8B7F8BE80FF91F43AD54ADA0
:101E800060E070E0BA0155274427DF01AF5BBF4F28
:101E90000D911C9120E030E0402B512B622B732BD5
:101EA000F4FE0AC04115510561057105F9F00E9463
:101EB000E51781111BC0B9CF4C8F5D8F6E8F7F8F5F
:101EC000ED5BFF4F80819181A281B381888F998FD3
:101ED000AA8FBB8FF5FE0EC0488D598D6A8D7B8D04
:101EE000CE010E94200E811105C09FCF8A8180689B
:101EF0008A83F0CF81E0DF91CF911F910F91FF9006
:101F0000BF90AF909F908F9008950F931F93CF93A2
:101F1000DF93FC012081211102C081E043C0EC016C
:101F2000828187FF38C061E0CF010E94900C8C0154
:101F3000009729F489818160898380E033C0FC01A6
:101F40008081853EB9F3888183FF08C0888D998D93
:101F5000AA8DBB8D848F958FA68FB78F8C8D9D8D0D
:101F6000AE8DBF8DF801938F828FB58BA48BE091DE
:101F70004306F0914406309759F0B8016A5E7F4FEE
:101F8000C80148960995F801808D918D938B828BBD
:101F90008A818F778A838E819F810E940A0C882391
:101FA00049F2BBCFDF91CF911F910F910895CF934D
:101FB000DF93EC010E94850F1882DF91CF91089585
:101FC000DF92EF92FF920F931F93CF93DF93CDB7E2
:101FD000DEB7E3970FB6F894DEBF0FBECDBF7C012E
:101FE0008B015BAB4AABD22E19821A82FC01808135
:101FF000882311F080E054C0FB0180818077D1F309
:10200000EAA9FBA980818F32D9F4EAA9FBA98081D2
:102010008F3221F43196FBABEAABF7CFF801668142
:102020007781811104C0C7010E94B00C39C0CE0174
:1020300001960E94B00C8823E9F28E010F5F1F4FBA
:10204000AE014E5C5F4FBE016F5D7F4F8AA99BA9B9
:102050000E94B911882371F2EAA9FBA98081882323
:10206000B9F021E0AE014F5D5F4FB801C7010E949A
:102070007513882309F4BECF80E2F701DE011196C3
:1020800001900D928A95E1F7C7010E94D70FD5CF35
:102090002D2DAE014F5D5F4FB801C7010E94751332
:1020A000E3960FB6F894DEBF0FBECDBFDF91CF91A0
:1020B0001F910F91FF90EF90DF9008952F923F9224
:1020C0004F925F926F927F928F929F92AF92BF9248
:1020D000CF92DF92EF92FF920F931F93CF93DF93F4
:1020E000EC015B014A01888183FF0EC08A8181FF78
:1020F0000BC082FF0FC0488D598D6A8D7B8DCE013C
:102100000E94200E811106C08981816089838FEF32
:102110009FEF0DC1A40160E070E088899989AA89C8
:10212000BB8980959095A095B09584179507A607D3
:10213000B70750F364011E018CE0280E311C08899A
:1021400019892A893B89C114D10409F4C3C08E813D
:102150009F81B901A80129E0769567955795479524
:102160002A95D1F7DC011396FC90F4221170F1103E
:1021700034C00115110589F54C855D856E857F8517
:10218000411551056105710569F091010E947016B4
:1021900087FDBACF8111C0C0CE010E940D0C811104
:1021A000BBC0B2CF8C8D9D8DAE8DBF8D0097A1052C
:1021B000B10579F4CE010E940D0C882309F4A4CF57
:1021C0008C859D85AE85BF858C8F9D8FAE8FBF8F93
:1021D00004C08C879D87AE87BF874C855D856E85E3
:1021E0007F858E819F810E945216AB01BC014F0DED
:1021F000511D611D711D0115110521F4C114B2E0BD
:10220000DB06B8F580E092E0801B910B76018C151F
:102210009D0508F47C010115110579F44888598859
:102220006A887B88888D998DAA8DBB8D4816590642
:102230006A067B0610F025E001C021E08E819F81B7
:1022400080960E941216009709F45ECFA701B5018F
:10225000800F911F0E94A32D0E0D1F1D011512400E
:1022600041F58E819F8180960E94CF15811121C0FA
:102270004BCFEE81FF8183A194A1A5A1B6A1481700
:1022800059076A077B0741F410A28FEF9FEFDC012B
:1022900083A394A3A5A3B6A3EE81FF8195018081BA
:1022A00091810E949F1B882309F42ECFE12C82E0AC
:1022B000F82E88899989AA89BB898E0D9F1DA11D39
:1022C000B11D888B998BAA8BBB8BAE0CBF1CCE1813
:1022D000DF0835CF488D598D6A8D7B8D8A814017F7
:1022E00051076207730728F4088F198F2A8F3B8FD5
:1022F00006C02091430630914406232B11F08068DC
:102300008A838A8183FD02C0C40111C0CE010E946C
:10231000850F8111F9CFF8CE4C855D856E857F855F
:102320008E819F810E945216AB01BC0167CFDF9165
:10233000CF911F910F91FF90EF90DF90CF90BF90C2
:10234000AF909F908F907F906F905F904F903F9055
:102350002F900895FC019C01255F3F4F80E0982F4E
:1023600090FB979597F98191890F2E173F07B9F741
:102370000895AF92BF92CF92DF92EF92FF920F93A8
:102380001F93CF93DF93DB01FC019F012F5F3F4F32
:102390008081803211F4F901F8CF1496FC93EE930A
:1023A00013979F0189010E1B1F0B722F632FE901E9
:1023B00089919E01882331F18F3221F4CF01800F62
:1023C000911F18C08C3511F480E0FFC0982F977FC3
:1023D0009232D1F38A33C1F3982F9F7B9C33A1F3C0
:1023E00092EC980F923080F380528F35D8F2ECCF78
:1023F0002F3241F4782F692FEC012991CE01203240
:10240000B9F7F8CFEA0178836983E801CE0FDF1FBF
:102410008E010E1B1F0BEC17FD0751F08A918E32B7
:10242000B9F38032A9F30F3F110509F06CF602C031
:1024300000E010E012961C930E931197ED01269682
:10244000CD01419620E22993C817D907E1F7EF01A2
:102450009E012E1B3F0B89918E32D1F38032C1F346
:1024600081E02115310509F080E0A80141505109B2
:10247000EF01C00FD11F4F3F9FEF590741F470E0AC
:1024800097E0A92E60E0B12CC8E0EC2E10C09A9124
:102490009E32A9F341505109EECF6F01C20ED31EF7
:1024A000E6019881903239F480E02F5F3F4F20178A
:1024B00031079CF358C09E3221F424173507A1F749
:1024C00004C09232E1F09C37D1F0D6EDFD2EF90E2A
:1024D000D5E0DF1510F09D3291F4C6ECFC2EF90E1C
:1024E000C5E0CF1560F4D5EAFD2EF90ED2E0DF1578
:1024F00030F4CFEDFC2EF90ECDE5CF1520F42417E6
:10250000350789F458C02417350709F454C0A616B6
:1025100030F1F92EDFE9DD2ED90ED9E1DD1548F0D5
:1025200090527E290CC0A616D0F08FE5F82E9FE5BC
:1025300080E0CFEBFC0ED9E1DF1508F0BE28FF24C8
:10254000F394F60E6D01C60ED11CE6019E83D6E013
:10255000DF1518F01596FC9215976F2DA6CF8AE01F
:10256000A8121FC080E016969C911697903209F42D
:102570002BCF882331F0DB2DD72309F072E07C9339
:102580000EC081E08C9315968C911597A80FB11D04
:102590008EE716968C93169781E317968C9381E0BD
:1025A00014C042175307F4F29A018AE0A82E68E09B
:1025B00090E1E92E79CF9AE0A916A1F29A019AE06A
:1025C000A92E68E0C0E1EC2E70CFDF91CF911F9172
:1025D0000F91FF90EF90DF90CF90BF90AF90089554
:1025E000AF92BF92CF92DF92EF92FF920F931F9321
:1025F000CF93DF937C01EB01BD8002E010E07EE72A
:10260000A72E6E0126E0C20ED11C29813A81C90194
:10261000800F911FEB81FC812E0F3F1F2E173F076C
:1026200079F0AC0165E0440F551F6A95E1F7840F1E
:10263000951F4191042E000C550B84279527EECF52
:10264000E3E0EB1510F433E0B32E34E03B0D282F1C
:102650002F70E32FF0E02A3010F4205D01C0295CD8
:10266000EC0FFD1F268324E0969587952A95E1F7C8
:102670003150B31660F3FE01EB0DF11DA68240E070
:1026800050E0BA01C7010E94200E61E0C7010E941C
:10269000D50D009731F481E0F70191819923D1F0B4
:1026A00018C0FC012081222361F0238523FDEDCF9A
:1026B0004BE050E0BC01C6010E94962D892B29F702
:1026C00002C081E007C00F5F1F4F0436110509F0FB
:1026D0009CCF80E0DF91CF911F910F91FF90EF9001
:1026E000DF90CF90BF90AF9008952F923F924F927E
:1026F0005F926F927F928F929F92AF92BF92CF9292
:10270000DF92EF92FF920F931F93CF93DF93CDB79A
:10271000DEB729970FB6F894DEBF0FBECDBF8C0190
:102720007D836C83FA01DB018C91807711F480E06A
:1027300008C2D8018C918111FACFA180B28080812A
:10274000837009F4F1C1C5010C966DE070E00E9440
:10275000402D99249394960E2A837F01EC81FD816C
:10276000F987E8871F830E8340E050E0BA01CF016C
:102770000E94200EC12CD12C1982212C10E000E0E7
:102780001B8297012A5F3F4F3D832C83A885B98523
:1027900050964D905D906D907C905397F5E07694B7
:1027A000679457944794FA95D1F7842C352C61E0BF
:1027B000CD010E94D50D009739F4E885F985818116
:1027C000882309F491C0B3CFDC012C91253E11F090
:1027D000211109C0111101C06201191508F41F5F10
:1027E000211105C081C0191508F4A1C102C0253E00
:1027F000D9F12E32C9F1FC0133853F3009F053C0C5
:10280000011108C026FFC2CF022F0F71F585F98391
:10281000202E07C02A94221127C02585B981B21322
:1028200023C0422D50E041505109EDE0E49F90015A
:10283000E59F300D11242A153B05B0F4FC01812CD5
:1028400064E0681518F08181928108C08AE08815DB
:1028500018F08481958102C086819781A216B30603
:1028600029F4892B09F492CF00E090CF8F3F910596
:1028700009F0D0F74FEB480F4A3108F4805EB901F8
:102880006F5F7F4FD70113964D915C911497240F82
:10289000351FD9019C912FEB290F2A3108F4905E46
:1028A0009813E2CF46C133FDDFCF002349F0B1E0FA
:1028B0002B123DCF0E94AA11E981E81338CF10C036
:1028C0004BE050E06C817D810E94962D892B09F0B0
:1028D0005DCFD7018C9180FF03C031E03B8356CFA1
:1028E000BA81B7FF17C123CF8A818274823409F07D
:1028F0001ECF111102C0C82CD32C191520F0EB816A
:10290000E11124C02BC060E0888599850E94D50D17
:10291000892B39F4A885B98511968C91882379F093
:1029200006CF1F5FEACFA885B9851696ED91FC9179
:1029300017978281823018F7105F191500F7888584
:1029400099850E941C0C8111EECFF1CEB7018885CC
:1029500099850E94F012882309F4E9CEA60160E06F
:1029600070E0E5E0440F551F661F771FEA95D1F729
:10297000888599850E94200E882309F4D8CE0FEF10
:10298000090D102F3FE0732E4701B6E08B0E911C0E
:102990004DE0642E49C060E0888599850E94D50D80
:1029A0006C01892B09F4C3CEA885B9851696ED91E3
:1029B000FC91179780A1816080A3101338C0B12FBC
:1029C000B0645B2EF601508273861486C4010E94A7
:1029D000AA11D6011D968C931D975B961C921E9290
:1029E0005A97F70123813481852D8F7190E00197EB
:1029F000689EA001699E500D1124F60160E04A1501
:102A00005B05B8F4D901A40FB51F8C91082E000CFA
:102A1000990B6530C8F4928381836F5F4F5F5F4F7E
:102A200032966D3061F711501111B5CF15C0512E8E
:102A3000C9CF81E090E0A416B50611F480E090E0E3
:102A4000919581959109E5CF6B3018F49583848336
:102A5000E4CF97838683E1CFE885F98580899189E2
:102A6000A289B38925E0B695A795979587952A956C
:102A7000D1F7882E392E60E0CF010E94D50D6C0170
:102A8000892B09F454CE80E2D6011D928A95E9F78C
:102A9000F70136968BE0D60101900D928A95E1F709
:102AA000F70180818871D6011C968C93E0914306D2
:102AB000F0914406309739F0B601625F7F4FC6014E
:102AC0004096099509C081E298E2F601918B808BCE
:102AD00080E098E097878687D60150968D919C91EB
:102AE000519753969C938E93529759969C938E939D
:102AF00058971E968D919C911F9757969C938E93F5
:102B00005697A885B9851696ED91FC91179780A1E7
:102B1000816080A32A81482D532D688579858E8117
:102B20009F810E94E40E0DC09924939415CE10E06D
:102B300060CE83943296BDE08B1609F427CE9B01BC
:102B40007FCE29960FB6F894DEBF0FBECDBFDF91C2
:102B5000CF911F910F91FF90EF90DF90CF90BF909A
:102B6000AF909F908F907F906F905F904F903F902D
:102B70002F9008956115710579F0FB0101900020F7
:102B8000E9F73197AF01461B570BDC01ED91FC9142
:102B90000280F381E02D099480E090E00895EF92A7
:102BA000FF921F93CF93DF93FC01208120FF32C05F
:102BB000EC017C01F7E0EF0EF11C4B815C816D8133
:102BC0007E81E981FA819701808191810E949F1B1A
:102BD000182F811102C010E01EC0888181FD04C041
:102BE00088818E7F888317C0E981FA814B815C815F
:102BF0006D817E8184859585A685B785480F591F8F
:102C00006A1F7B1F9701808191810E949F1B811108
:102C1000E7CFE1CF11E0812FDF91CF911F91FF909E
:102C2000EF900895CF92DF92EF92FF921F93CF9390
:102C3000DF93EC016A017B01122F8B819C81AD81B6
:102C4000BE8184179507A607B707F1F0CE010E9451
:102C5000CF15811103C080E090E01CC012FF06C0B8
:102C60001882CB82DC82ED82FE820EC0E981FA817D
:102C70009E01295F3F4FB701A601808191810E948B
:102C8000381B8111EDCFE7CF13708881182B188383
:102C9000CE010796DF91CF911F91FF90EF90DF90CB
:102CA000CF9008950F931F93425051096109710904
:102CB000FC01048004C0440F551F661F771F0A944F
:102CC000D2F780899189A289B3898A019B01080F73
:102CD000191F2A1F3B1FC901B8011F910F910895A9
:102CE000CF92DF92EF92FF920F931F93CF93DF93D8
:102CF000EC016A017B0189018D81803251F58C895B
:102D00009D89AE89BF89E7E0769567955795479588
:102D1000EA95D1F7480F591F6A1F7B1F22E0CE01A9
:102D200080960E941216009711F48FEF40C0E8942D
:102D3000C7F8DD24EE24FF24CC0CDD1CCC0CDD1CFC
:102D4000FC01EC0DFD1D80819181A281B381BF70DA
:102D50001DC0803151F74C895D896E897F894D0D89
:102D6000511D611D711D22E0CE0180960E94121638
:102D70000097D9F2DD24EE24FF24CC0CDD1CFC01ED
:102D8000EC0DFD1D80819181A0E0B0E0488D598D52
:102D90006A8D7B8D481759076A077B0738F0F80161
:102DA00080839183A283B38381E001C080E0DF91BF
:102DB000CF911F910F91FF90EF90DF90CF900895EA
:102DC0008F929F92AF92BF92CF92DF92EF92FF923B
:102DD0000F931F936A017B0148015901FC01258172
:102DE000203251F544895589668977899701860192
:102DF000E7E03695279517950795EA95D1F7400FA7
:102E0000511F621F731F23E080960E9412160097C5
:102E100011F480E02DC0E894C7F8DD24EE24FF24EF
:102E2000CC0CDD1CCC0CDD1CFC01EC0DFD1D8082EE
:102E30009182A282B3821BC0203159F7FC014489E0
:102E40005589668977894D0D511D611D711D23E0DE
:102E500080960E9412160097E1F2DD24EE24FF24F2
:102E6000CC0CDD1CFC01EC0DFD1D9182808281E00B
:102E70001F910F91FF90EF90DF90CF90BF90AF9098
:102E80009F908F9008953F924F925F926F927F92A2
:102E90008F929F92AF92BF92CF92DF92EF92FF926A
:102EA0000F931F93CF93DF93CDB7DEB728970FB65D
:102EB000F894DEBF0FBECDBF9E838D832A013B01F8
:102EC00038872F83411551056105710531F4FC01E7
:102ED00080849184A284B38402C04A015B0175019D
:102EE0006401FFEFCF1ADF0AEF0AFF0AED81FE81CE
:102EF000808D918DA28DB38D8C159D05AE05BF057E
:102F000028F482E0C82ED12CE12CF12C9E012F5FF9
:102F10003F4FB701A6018D819E810E94701687FDEB
:102F20001DC0882341F089819A81AB81BC81892BA6
:102F30008A2B8B2B31F0C814D904EA04FB0489F6E0
:102F40000DC00FEF1FEF2FEF3FE0B701A6018D81FE
:102F50009E810E94E016382E811102C0312C1CC0C7
:102F6000411451046104710459F097018601B301C1
:102F7000A2018D819E810E94E016811107C0EECFD3
:102F8000ED81FE81C086D186E286F386EF81F885E9
:102F9000C082D182E282F382832D28960FB6F89404
:102FA000DEBF0FBECDBFDF91CF911F910F91FF907C
:102FB000EF90DF90CF90BF90AF909F908F907F90D9
:102FC0006F905F904F903F9008959F92AF92BF9205
:102FD000CF92DF92EF92FF920F931F93CF93DF93E5
:102FE00000D000D0CDB7DEB75C016A017B019E0145
:102FF0002F5F3F4FB701A601C5010E947016982EA2
:1030000087FF02C080E01EC000E010E09801B70119
:10301000A601C5010E94E0168823A1F3F5014085B1
:10302000518562857385C416D506E606F70620F439
:10303000C086D186E286F386C980DA80EB80FC8088
:103040009110D5CF0F900F900F900F90DF91CF91EF
:103050001F910F91FF90EF90DF90CF90BF90AF90B6
:103060009F900895CF92DF92EF92FF920F931F935C
:10307000CF93DF93EC01162F1D8281E090E0A0E05A
:10308000B0E088879987AA87BB87DAA3C9A318A26B
:103090008FEF9FEFDC018BA39CA3ADA3BEA36623A0
:1030A00031F1653008F0C4C020E040E050E0BA01E2
:1030B000CE0180960E941216009709F4B9C000E173
:1030C000109F800D911D11244097FC01E254FE4F8A
:1030D00020812F7709F0ACC03896C080D180E28083
:1030E000F380C114D104E104F10421F4A1C0C12C86
:1030F000D12C760120E0B701A601CE0180960E9476
:103100001216FC01892B09F493C0838594858115DF
:10311000924009F08DC08089823009F089C086858F
:103120009785892B09F484C025852A838FEF820F28
:103130008B831C8249E050E091E0921749F04150A6
:10314000510909F475C0990F8C818F5F8C83F5CF7D
:10315000468957894115510519F060E070E004C0B7
:1031600044A155A166A177A14C875D876E877F87B3
:103170008685978597018601080F191F211D311D2E
:103180000C8B1D8B2E8B3F8B818992899F838E8325
:10319000440F551F661F771F400F511F621F731F7B
:1031A0004C8F5D8F6E8F7F8FB5E0880F991FBA951A
:1031B000E1F781509E4F892F99278695480F591F17
:1031C000611D711D488B598B6A8B7B8B23893489D8
:1031D0002115310521F0C901A0E0B0E004C080A1B3
:1031E00091A1A2A1B3A197018601041B150B260B87
:1031F000370BB901A801480F591F6A1F7B1F0C80AC
:1032000004C076956795579547950A94D2F7DB01E8
:10321000CA010196A11DB11D888F998FAA8FBB8FFE
:10322000453F1FE051076105710520F48CE08D8357
:1032300080E012C0453F5F4F6105710510F480E1E9
:1032400009C084A595A5A6A5B7A58C8F9D8FAE8F27
:10325000BF8F80E28D8381E0DF91CF911F910F912D
:10326000FF90EF90DF90CF9008958FEF8EBD0DB45B
:1032700007FEFDCF8EB508958EBD0DB407FEFDCFC0
:1032800008950E94A828CB010895CF93DF93DC0115
:1032900013962C911397211128C01196ED91FC9152
:1032A00012976081518120914106222399F04FB7F6
:1032B000F89420914106213059F42DB320933F0614
:1032C0003DB320914006209523232DBB4FBF02C064
:1032D00040933F06EC016CBD5DBDE981FA8160E081
:1032E00082810E94E42981E08B83DF91CF91089550
:1032F000CF93DF93FC0123812223E1F0EC010180D5
:10330000F281E02D61E082810E94E4298FEF0E942A
:103310003C1980914106882361F09FB7F894209171
:10332000410680913F06213019F48DBB9FBF01C03B
:103330008FBF1B82DF91CF910895CF92DF92EF92E2
:10334000FF920F931F93CF93DF938C017B01EA01D0
:103350000E9441196C010E943519F80184838F3F46
:1033600049F40E9441198C199D098D32914098F3BE
:1033700084E503C08E3F41F080E5F8018083C801F9
:103380000E94781980E022C02097C9F021978FEF22
:103390008EBDF7019FEF9F012E193F092C173D07A6
:1033A00038F40DB407FEFDCF8EB59EBD8193F3CFEB
:1033B0000DB407FEFDCF8EB5CE0DDF1D8883F8015D
:1033C00014820E9435190E94351981E0DF91CF9156
:1033D0001F910F91FF90EF90DF90CF9008950F9382
:1033E0001F93CF93DF93EB010E9441198C010E9440
:1033F00035198F3F49F00E944119801B910BC81766
:10340000D907A8F780E001C081E0DF91CF911F913B
:103410000F910895FF920F931F93CF93DF9300D0E6
:1034200000D0CDB7DEB78C01F62E29833A834B83CB
:103430005C83FC018381811103C0C8010E9445198E
:1034400068E572E0C8010E94EF198F2D80640E9428
:103450003C198C810E943C198B810E943C198A8105
:103460000E943C1989810E943C19FF2011F087E8D5
:1034700001C085E90E943C19FCE0FF1202C00E94D5
:103480003519F12C0E943519F801848387FF05C096
:10349000FFEFFF1611F0F394F5CF0F900F900F9000
:1034A0000F90DF91CF911F910F91FF900895CF92D0
:1034B000DF92EF92FF921F93CF93DF93EC01162FD1
:1034C00069017A0120E030E0A90167E30E940A1A4D
:1034D000A7019601612FCE01DF91CF911F91FF903F
:1034E000EF90DF90CF900C940A1AAF92BF92CF92D8
:1034F000DF92EF92FF920F931F93CF93DF93EC0134
:10350000D42E59011B8218821D827A8369830E94FE
:1035100041198C01E980FA80F701D28261E08D2D9A
:103520000E94A82961E0F70182810E94E4290E949B
:10353000D40BE981FA8182E580831182CE010E9459
:103540004519E981FA8161E082810E94E4292AE03B
:10355000F22E8FEF0E943C19FA94F110FACFE98114
:10356000FA8160E082810E94E42920E030E0A90134
:1035700060E0CE010E940A1A813049F00E94411990
:10358000801B910B813D974080F380E24BC02AEA7B
:1035900031E040E050E068E0CE010E940A1A853038
:1035A00011F481E00BC094E0F92E0E9435198C8350
:1035B000FA94F110FACF8A3A49F482E08D838D8132
:1035C000823069F0C12CD12C76010EC00E944119C5
:1035D000801B910B813D9740D0F285E223C0C12C26
:1035E000D12CE12C80E4F82EA701960169E2CE01EE
:1035F0000E94571A882349F00E944119801B910BA1
:10360000813D974088F383E40DC08D818230E9F4D9
:1036100020E030E0A9016AE3CE010E940A1A882363
:1036200039F087E38883CE010E94781980E015C0C5
:103630000E943519807C803C11F483E08D830E94C8
:1036400035190E9435190E943519CE010E9478194A
:10365000E981FA81A082B18281E0DF91CF911F914F
:103660000F91FF90EF90DF90CF90BF90AF900895B3
:103670000F931F93CF93DF93EC0189018D818330EA
:1036800039F089E0440F551F661F771F8A95D1F7DF
:103690009A01AB0161E1CE010E940A1A882319F058
:1036A00080E388830DC040E052E0B801CE010E9463
:1036B0009D19182F882321F0CE010E94781904C08B
:1036C000CE010E94781910E0812FDF91CF911F91D8
:1036D0000F9108950F931F93CF93DF938C01862F43
:1036E000EA010E943C1988818EBD8981FE013296D3
:1036F000DE5F0DB407FEFDCF8EBDEC17FD0711F0A8
:103700008191F7CF0DB407FEFDCF8FEF0E943C19DA
:103710008FEF0E943C190E943519F80184838F7144
:10372000853039F086E58083C8010E94781980E0F1
:1037300001C081E0DF91CF911F910F9108950F9308
:103740001F93CF93DF93EC0189018D81833039F092
:1037500089E0440F551F661F771F8A95D1F79A019C
:10376000AB0168E1CE010E940A1A882319F082E3B6
:1037700088830CC0A8016EEFCE010E946A1B182F2F
:10378000882321F0CE010E94781904C0CE010E9446
:10379000781910E0812FDF91CF911F910F9108953B
:1037A00004960C94850F04960C945E10CF93DF93CF
:1037B0001F92CDB7DEB7698341E050E0BE016F5F75
:1037C0007F4F04960E945E100F90DF91CF91089575
:1037D0008EBD00000DB407FEFDCF8EB508959CB5DB
:1037E0009C7F282F2370922B9CBD2DB582FB99279F
:1037F00090F9822F8E7F892B8DBD0895CF93DF9313
:103800001F92CDB7DEB741E050E0BE016F5F7F4F42
:103810000E94CA0C019719F4898190E002C08FEFD1
:103820009FEF0F90DF91CF91089588E00E94132AB7
:10383000892B59F020916B0630916C062D7F81E029
:103840002530310519F080E0089583E008950F9345
:103850001F93CF93DF93EC0118820FEF1FEF81E7E7
:1038600096E00E94FE1B8F3F910509F059C081E749
:1038700096E00E94FE1B9C01207E3327203E3105EE
:1038800009F04EC09C01267033272115310509F43B
:1038900047C083FF09C02430310541F02230310593
:1038A00009F03EC012E003C013E001C011E081E75F
:1038B00096E00E94FE1B992724E0959587952A950E
:1038C000E1F726E0289FF001299FF00D1124E10F78
:1038D000F11DEE0FFF1FE35CFD4F859194918695DE
:1038E00086958695888340918106509182066091E5
:1038F000830670918406435051096109710981E77B
:1039000096E00E94200E8091810690918206A091FF
:103910008306B091840689839A83AB83BC8304C0F9
:103920000150110909F09BCFDF91CF911F910F91A9
:1039300008958CB58F7D8CBD8CB5837F8CBD8091B7
:1039400067060C94EF1B0E94991C60E089E00C94C0
:10395000E42961E089E00C94E4290E94991C60E06C
:1039600086E00C94E42961E086E00C94E4298091DF
:103970006B0690916C06059739F443E050E064E7DC
:103980007DE184E00C941627089584E00C9466276A
:1039900080916B0690916C06059769F488E00E940F
:1039A000132A892B41F00E94C51C87E090E0909378
:1039B0006C0680936B0608950C94C81CCF92DF921E
:1039C000FF920F931F93CF93DF93EC0186E09EE16C
:1039D0000E944920F82ECE018D7F892B89F40E9408
:1039E000AD1C04E018E087E00E94132A892BD9F36C
:1039F0008F2D0E94E81B01501109A9F70E94B31CEA
:103A000000E410E080E00E94671FBC01686080E075
:103A10000E941F1E0E94AD1C80E2C82ED12C87E0A0
:103A20000E94132A892BD9F38F2D0E94E81B81E075
:103A3000C81AD108A1F70E94B31C80E00E94671F3A
:103A400083FD1AC02197229750F50E94AD1CC4E057
:103A5000D8E087E00E94132A892BD9F38F2D0E948A
:103A6000E81B2197B1F7DF91CF911F910F91FF9044
:103A7000DF90CF900C94B31C0150110909F0C2CF14
:103A800080E00E94671FBC01646080E0DF91CF91FD
:103A90001F910F91FF90DF90CF900C941F1EDF912C
:103AA000CF911F910F91FF90DF90CF90089580915B
:103AB0006B0690916C068D7F0597A9F488E00E94B3
:103AC000132A892B81F00E94C51C84E090E090931A
:103AD0006C0680936B0681E796E00E94D70F81E029
:103AE00090E00C94DE1C0895CF93DF93789487E0E8
:103AF0000E94132A892B59F140E250E067E476E0F6
:103B000081E796E00E94CA0C892B91F481E796E048
:103B10000E94D70F84E090E090936C0680936B0630
:103B20000E94C51C80E090E0DF91CF910C94DE1CD8
:103B3000F8940E94AD1CC7E4D6E089910E94E81B6E
:103B400086E0C736D807C9F70E94B31CCFCFDF91F4
:103B5000CF91089580916B0690916C06079779F448
:103B600088E00E94132A892B51F00E94741D85E081
:103B700090E090936C0680936B060C94B71C0895AC
:103B8000CF93DF9320916B0630916C06273031057F
:103B900031F4EC0188E00E94132A892B11F481E0B2
:103BA00004C0CE010E94AA1D80E0DF91CF9108954C
:103BB0001F93CF93DF93182FD62FC42F88E00E9436
:103BC000132A892B79F180916B0690916C060597E9
:103BD00011F40E94C51C87E00E94132A892BD9F397
:103BE0000E94A31C82E00E94E81B812F0E94E81B18
:103BF0008D2F0E94E81B8C2F0E94E81B87E00E94FB
:103C0000132A892BD9F30E94A91C80916B069091ED
:103C10006C06059739F40E94741DDF91CF911F91B6
:103C20000C94B71CDF91CF911F910895FC0165831F
:103C300046838BE00C94D81D462F0C94161E462FFD
:103C4000672F0C94D81DEF92FF920F931F93CF9381
:103C5000DF9300D000D000D0CDB7DEB78C017B0160
:103C600088E00E94132A892B11F413E072C0C80166
:103C70000E94151C182F81116BC088E00E94132A26
:103C8000892B99F3609145067091460621E0A701C2
:103C900081E796E00E94E00F81111BC012E059C03D
:103CA00042E050E0BE016F5F7F4F81E796E00E94E7
:103CB000CA0C892B09F447C089819A8197FD15C0E8
:103CC00089819A819C01215031093A832983892B6A
:103CD00049F542E050E0BE016D5F7F4F81E796E01D
:103CE0000E94CA0C892BE1F62EC09F779A838983A4
:103CF00042E050E0BE016B5F7F4F81E796E00E949B
:103D0000CA0C892B01F189819A819C0121503109CA
:103D10003A832983892BE9F26D817E818B810E9410
:103D20001F1EF1CF42E050E0BE016B5F7F4F81E785
:103D300096E00E94CA0C892B61F26D817E818B8195
:103D40000E941F1EBDCF81E796E00E94D70F01C0E1
:103D500011E0812F26960FB6F894DEBF0FBECDBFBF
:103D6000DF91CF911F910F91FF90EF9008958F9267
:103D70009F92AF92BF92EF92FF920F931F93CF93B8
:103D80008C017B0149015A010E94151CC82F811129
:103D900050C088E00E94132A892B09F44CC060911E
:103DA00045067091460621E0A70181E796E00E9452
:103DB000E00F882309F441C0C7010E94AC2D6AE6D8
:103DC00072E00E94B62D892BF1F0B701C8010E9464
:103DD000271C81149104A104B104A9F0F801A08169
:103DE000B0E0A50194010E948B2D018112812381F5
:103DF0003481AB01BC01400F511F621F731F81E76B
:103E000096E00E94200E85E090E090936C068093EF
:103E10006B0660E070E084E00E941F1E64E670E0C4
:103E200080E090E00E94D9280E94741D0E94B71C77
:103E300005C0C1E003C0C3E001C0C2E08C2FCF9138
:103E40001F910F91FF90EF90BF90AF909F908F9038
:103E50000895EF92FF920F931F93CF93DF93CDB707
:103E6000DEB72D970FB6F894DEBF0FBECDBF7C0135
:103E70008DE0E1E6F2E08E010F5F1F4FD801019067
:103E80000D928A95E1F71F926F9383E592E09F93DD
:103E90008F931F930F930E94D02D20E030E0A90153
:103EA000B801C7010E94B71E0F900F900F900F909E
:103EB0000F900F902D960FB6F894DEBF0FBECDBFBA
:103EC000DF91CF911F910F91FF90EF900895CF93C5
:103ED000DF93C82F88E00E94132A892BD1F18091AB
:103EE0006B0690916C06059711F40E94C51C87E043
:103EF0000E94132A892BD9F30E94A31C8091690682
:103F00000E94EF1B83E00E94E81B8C2F0E94E81B9D
:103F10008FEF0E94E81BC82F87E00E94132A892B8D
:103F2000D9F38FEF0E94E81BD82F87E00E94132A55
:103F3000892BD9F30E94A91C80916B0690916C0685
:103F4000059721F40E94741D0E94B71C8D2F9C2F91
:103F500002C080E090E0DF91CF910895CF93DF938E
:103F6000EC0164E670E080E090E00E94D92860E017
:103F700088E00E94E42964E670E080E090E00E941E
:103F8000D92861E088E00E94E42981E090E09093E4
:103F90006A068093690690936806809367066AE0D4
:103FA00070E080E090E00E94D92880E00E94671FC6
:103FB0008115984479F560E070E683E00E941F1E49
:103FC00010926A061092690684E090E09093680669
:103FD000809367066AE070E080E090E00E94D92854
:103FE00083E00E94671F81159046B1F448E268E2C1
:103FF000CE010E94161E6EE672E0CE010E94231EC4
:10400000C82F81110BC064E670E080E090E00E9450
:10401000D92805C0C4E003C0C5E001C0C6E08C2FAC
:10402000DF91CF910895CF93DF93EC018091D4027B
:1040300081110CC064ED71E081E996E00E94E821F5
:104040006EE771E081E996E00E94E82160E087E098
:104050000E94A82961E089E00E94A82961E086E029
:104060000E94A82961E088E00E94A8290E94A91C5A
:104070000E94B31C60E088E00E94E42981E090E0A7
:1040800090936C0680936B06CE01DF91CF910C94D8
:10409000AE1F0F931F93CF93DF93EC010E94991CE7
:1040A000809169060E94EF1BBE0187E00E941F1EDF
:1040B00086E00E94671F8C01BE0187E00E941F1EE0
:1040C00086E00E94671F0817190789F0BE0187E084
:1040D0000E941F1E86E00E94671F0817190739F00B
:1040E000BE0187E00E941F1E86E00E94671FC80174
:1040F000DF91CF911F910F910895EDE6F6E01482C4
:1041000015821382128287E992E091838083089559
:10411000CF93DF931F92CDB7DEB76983DC01ED91BA
:10412000FC910280F381E02D41E050E0BE016F5F21
:104130007F4F09950F90DF91CF910895CF93DF9333
:10414000EC018C859D8597FF05C082E00E94E223EB
:104150009D878C878C859D85DF91CF91089583E025
:104160000E94F92390E0089583E00C947726FC01E7
:104170008485958597FD06C082E00E948D2390E09E
:104180000196089582E00E948D2390E00895FC013D
:104190008485958597FD05C02FEF3FEF35872487F0
:1041A000089582E00C94E223CF93DF93EC01809199
:1041B0000D01882331F083E00E941324181619069C
:1041C00034F081E090E09B838A8380E090E0DF918F
:1041D000CF910895EEEFFFE72591349181E02B3FD9
:1041E0003C4D09F080E00895FC0190819E5F908332
:1041F00042E450E061EF72E080E80C94C324FC01DB
:1042000081819081913A59F4813209F065C047E08B
:1042100050E066E071E080E00E94C3245BC0913210
:1042200009F05AC0833269F482819381A0E0B0E042
:104230008093020190930301A0930401B0930501C0
:1042400049C0803239F467E070E086E091E00E9476
:10425000EA2440C0823209F03DC0828180930D0182
:104260000E94EA20882319F0EEEFFAE002C0E0E0B5
:10427000F8E08091060190910701A0910801B091AA
:104280000901803B9440A105B10541F580910D01E4
:1042900080FD24C0EE3F8AE0F80751F080819181D3
:1042A000873727E7920721F09093FF0A8093FE0A51
:1042B00087E797E791838083809160008093E10690
:1042C0009BE088E10FB6F894A895809360000FBE3C
:1042D0009093600081E0089580E00895808191814D
:1042E00087379747B9F7A8958091600088618093D8
:1042F00060008091E10680936000EE3F8AE0F8075D
:1043000039F08091FE0A9091FF0A91838083E2CF79
:104310001092FF0A1092FE0ADDCF2FEF3FEFFC0153
:10432000358724870895CF93C0910D016AE070E02E
:1043300080E090E00E94D92881E0C11101C080E0B6
:10434000CF910895E1E9F6E01382128288EE93E0BE
:10435000A0E0B0E084839583A683B78383EA92E0EC
:10436000918380838FEF9FEF958784870895EF92E5
:10437000FF920F931F93CF93DF938C017B01C0E0DB
:10438000D0E0F701EC0FFD1F6491662361F0D801C6
:10439000ED91FC910190F081E02DC8010995892BE8
:1043A00011F02196EECFCE01DF91CF911F910F91A9
:1043B000FF90EF9008950C94BA15DC01ED91FC91FB
:1043C0000190F081E02D099461EB72E00C94BA1534
:1043D0000F931F93CF93DF93EC010E94B7218C01C1
:1043E000CE010E94E421800F911FDF91CF911F9198
:1043F0000F9108950F931F93CF93DF93EC010E94C9
:10440000BA158C01CE010E94E421800F911FDF912B
:10441000CF911F910F9108958F929F92AF92BF926B
:10442000EF92FF920F931F93CF93DF93CDB7DEB739
:10443000A1970FB6F894DEBF0FBECDBF7C01FA0185
:10444000CB0119A2223008F42AE08E010F5D1F4F24
:10445000822E912CA12CB12CBF01A50194010E94A8
:10446000542DF901CA01015011096A3014F4605D3C
:1044700001C0695CD8016C93232B242B252B61F799
:10448000B801C7010E94BA15A1960FB6F894DEBF15
:104490000FBECDBFDF91CF911F910F91FF90EF9095
:1044A000BF90AF909F908F9008952115310541F4F2
:1044B000DC01ED91FC910190F081E02D642F0994D5
:1044C0000C940C229A01462F50E060E070E00C94AE
:1044D00055220F931F93CF93DF93EC010E94552237
:1044E0008C01CE010E94E421800F911FDF91CF91BA
:1044F0001F910F910895CF92DF92EF92FF920F9349
:104500001F93CF93DF932115310581F4DC01ED91E9
:10451000FC910190F081E02D642FDF91CF911F91EC
:104520000F91FF90EF90DF90CF9009942A303105E2
:1045300001F577FF1DC06A017B01EC016DE20E946D
:10454000DD218C0144275527BA014C195D096E09FC
:104550007F092AE0CE010E940C22800F911FDF917B
:10456000CF911F910F91FF90EF90DF90CF90089522
:104570002AE0DF91CF911F910F91FF90EF90DF9094
:10458000CF900C940C229A01AB01770F660B770B3E
:104590000C947B220F931F93CF93DF93EC010E9427
:1045A000C3228C01CE010E94E421800F911FDF9174
:1045B000CF911F910F910895615030F02091F1003B
:1045C000FC0120830196F8CF289884E68093EA06C0
:1045D00008954091E5065091E6062091E30630915A
:1045E000E40642175307B4F49091E8009570E1F3A4
:1045F0009091E80092FD19C08093F1008091E5064A
:104600009091E60601968F739927892B19F48EEF06
:104610008093E8008091E5069091E60601969093DC
:10462000E6068093E50681E0089580E00895DF9234
:10463000EF92FF920F931F93CF93DF93D82EF92E13
:10464000E42E062F10E0C8010196880F0E94E9228F
:1046500083E00E94E922CD2DDF2D0C0F1D1FC01716
:10466000D10789F0E7FE03C0FE01849101C0888173
:104670000E94E922F82E80E00E94E9228F212196F3
:104680008111EDCF01C081E0DF91CF911F910F919A
:10469000FF90EF90DF9008958091D7008160809324
:1046A000D70080EA8093D80089B5806189BD89B53B
:1046B000826089BD09B400FEFDCF61E070E080E05A
:1046C00090E00E94D9288091D8008F7C80618093EF
:1046D000D8008091E000807F8093E0000895CF9320
:1046E000DF931F92CDB7DEB71982CE0101960E94EB
:1046F000F4200E94C12ABE016F5F7F4F0E943C2AB6
:1047000089810F90DF91CF9108952FB7FC0120830D
:10471000F89467706093E9000895CF93DF931F9238
:10472000CDB7DEB7682FCE0101960E948523809118
:10473000F20099819FBF0F90DF91CF910895EF9282
:10474000FF920F931F93CF93DF931F92CDB7DEB7E6
:104750009091E906992311F057FF03C08FEF9FEF67
:1047600029C08A017B01682FCE0101960E94852312
:104770002091F20030E0021713070CF49801822F09
:10478000F70194E6815038F028989093EA0640911A
:10479000F1004193F7CF2115310521F08091F2000E
:1047A000882321F089818FBFC90104C08BE68093E3
:1047B000E800F8CF0F90DF91CF911F910F91FF90FC
:1047C000EF900895CF93DF931F92CDB7DEB741E00E
:1047D00050E0BE016F5F7F4F0E949F23019719F445
:1047E000898190E002C08FEF9FEF0F90DF91CF9112
:1047F0000895CF93DF931F92CDB7DEB7682FCE0118
:1048000001960E9485239091E800892F807295FF80
:1048100004C09091F20080E4891B99819FBF0F90A2
:10482000DF91CF9108955F926F927F928F929F92C6
:10483000AF92BF92CF92DF92EF92FF920F931F93AE
:10484000CF93DF931F92CDB7DEB7982E6B01B42EB6
:10485000052F8091E906811103C08FEF9FEF77C08C
:104860008091E70680FF05C08091E0008260809320
:10487000E000EB2CF02EA12C8AEF882E892D80727F
:10488000682E892D8074582E9AE3792EE114F10454
:1048900019F4AA2009F455C0892D0E94F923182F74
:1048A00081110AC08A948820C1F261E070E080E042
:1048B00090E00E94D928EACF90E0E816F9060CF4BF
:1048C0001E2D692DCE0101960E9485238091E8005E
:1048D00085FF34C0812F90E0E81AF90A662029F09C
:1048E0001150A0F01092F100FBCFF60197FE0AC024
:1048F000115050F024912093F1003196F9CF21917D
:104900002093F1001150D8F7C80ED91EAA2019F033
:104910007092E8000BC08091E80085FD09C070929C
:10492000E800AA24A394E114F10441F0A12C06C0EC
:10493000E114F10419F451107092E80089818FBFDD
:10494000A5CF5D9884E68093EB068B2D902F0F907A
:10495000DF91CF911F910F91FF90EF90DF90CF905B
:10496000BF90AF909F908F907F906F905F900895D1
:104970001092E9001092E6061092E5069093E40684
:104980008093E3060895DF92EF92FF920F931F93B7
:10499000CF93DF93D82E8A017B01E40EF51EEB0145
:1049A000CE15DF0571F0D7FE03C0FE01849101C072
:1049B00088810E94E92221968111F2CF8FEF9FEF2B
:1049C00001C0C801DF91CF911F910F91FF90EF902F
:1049D000DF900895AF92BF92DF92EF92FF920F9314
:1049E0001F93CF93DF935C018B01EB019BEFD92EDB
:1049F0002097C1F07E01C134D1051CF080E4E82E7F
:104A0000F12C8091E80082FFFCCFC8018C1B9D0B2C
:104A10006E2D8A0D9B1D0E94DC22D092E800CE19DB
:104A2000DF09E6CFC801DF91CF911F910F91FF9071
:104A3000EF90DF90BF90AF9008951F920F920FB646
:104A40000F921124CF92DF92EF92FF920F931F9358
:104A50002F933F934F935F936F937F938F939F9386
:104A6000AF93BF93EF93FF93CF93DF93CDB7DEB7B1
:104A70006C97DEBFCDBF1092E9008091E80083FF04
:104A800017C168E0CE0145960E94DC2282EF809338
:104A9000E8008D8987FF05C09091E80090FFFCCF6A
:104AA00003C09EEF9093E800982F907609F0D8C04D
:104AB0009E894F89588D2F89188D91110CC080388F
:104AC00029F48091E8068093F10002C01092F10071
:104AD0001092F100E6C0913051F48111E2C04130F2
:104AE000510509F0DEC08091E8068D7F0BC0933040
:104AF00061F48111D6C04130510509F0D2C08091D6
:104B0000E80682608093E806CCC0953049F4809135
:104B1000E80080FFFCCF822F80688093E300C1C053
:104B2000963009F070C0EB8CFC8C123069F580E097
:104B300090E00E94B8240E946F2399E09E012F5FAD
:104B40003F4F6901F901292F11922A95E9F79983BD
:104B50001A8391E09E8390EA98879AEF9987209133
:104B6000E5063091E606275F3F4F3C832B838D831C
:104B7000C7010E94B82449E050E0B60180E00E94DD
:104B8000C3240E946F238DC0C7010E94B8240E94D5
:104B9000C12ABE016B5E7F4F0E94652A009719F003
:104BA0000CF07FC082C0113009F470C0133009F0DE
:104BB0007CC08F89882309F46CC0823029F440E8D6
:104BC0006BE085E593E006C0813039F440E86FE0A2
:104BD00085E493E00E94172356C0833009F065C036
:104BE0000E94C12A8E010F5F1F4FB8010E94842AC4
:104BF000F80101900020E9F73197BF01601B710BAC
:104C000040E0C801E7CF973009F44FC0983021F455
:104C100081E08093F10045C0993009F042C0837073
:104C200009F043C0EFE0F1E081E031E096E320815C
:104C3000211109C08EE78093EA001092EA008F8963
:104C40008093E9062EC08093E9003093EB00219118
:104C50002093EC009093ED008F5F873041F7EACF0F
:104C60008B8D9C8D0E94B824898D811105C0CE0149
:104C700045960E94FF2007C00E94C12ABE016B5EBC
:104C80007F4F0E94A32A882381F00BC063E373E067
:104C900002C061E673E0FB01449150E080E80E94AD
:104CA000C3248EEF8093E80003C081E28093EB0081
:104CB0006C960FB6F894DEBF0FBECDBFDF91CF91DB
:104CC000FF91EF91BF91AF919F918F917F916F91E4
:104CD0005F914F913F912F911F910F91FF90EF9016
:104CE000DF90CF900F900FBE0F901F90189580937C
:104CF000E9008091F200882319F08AE38093E800AC
:104D000008951F920F920FB60F9211242F933F9385
:104D10004F935F936F937F938F939F93AF93BF93C3
:104D2000CF93EF93FF93C091E1008091E100837FE7
:104D30008093E100C3FF0FC01092E90081E08093EF
:104D4000EB001092EC0082E38093ED001092E906F4
:104D500088E08093F000C2FF19C083E00E947726AC
:104D60008091EB06882339F08091EB068150809387
:104D7000EB06882389F18091EA06882339F0809137
:104D8000EA0681508093EA06882341F1C4FF10C0EF
:104D90008091E2008E7E81608093E2008091E1004C
:104DA0008F7E8093E1008091E7068E7E806111C046
:104DB000C0FF16C08091E2008E7E80618093E20089
:104DC0008091E1008E7E8093E1008091E7068E7EE7
:104DD00081608093E70604C05D9ACDCF289AD6CF34
:104DE000FF91EF91CF91BF91AF919F918F917F9163
:104DF0006F915F914F913F912F910F900FBE0F9048
:104E00001F9018951092E9061092E8061092E70696
:104E10000E944C23E1EEF0E080818E7E80838DE065
:104E20008093E200559A209A08950895853008F0FD
:104E30004CC0E82FF0E0EE0FFF1FEB5EFE4F7183DA
:104E400060838230E1F018F4813069F004C083306F
:104E500019F1843071F1809169008C7F482B409367
:104E60006900E89A089580916900837F440F551F77
:104E7000440F551F482B40936900E99A089580918B
:104E800069008F7C34E0440F551F3A95E1F7482BB9
:104E900040936900EA9A0895809169008F7326E033
:104EA000440F551F2A95E1F7482B40936900EB9A70
:104EB000089580916A008F7C94E0440F551F9A9565
:104EC000E1F7482B40936A00EE9A08958530E8F4A4
:104ED000823061F018F4813039F004C0833041F041
:104EE000843041F0E89807C0E99805C0EA9803C00B
:104EF000EB9801C0EE98E82FF0E0EE0FFF1FEB5E9D
:104F0000FE4F85E197E29183808308951F920F926F
:104F10000FB60F9211242F933F934F935F936F938C
:104F20007F938F939F93AF93BF93EF93FF93E09102
:104F30001501F09116010995FF91EF91BF91AF9185
:104F40009F918F917F916F915F914F913F912F91A1
:104F50000F900FBE0F901F9018951F920F920FB6D3
:104F60000F9211242F933F934F935F936F937F93EF
:104F70008F939F93AF93BF93EF93FF93E0911701AC
:104F8000F09118010995FF91EF91BF91AF919F9119
:104F90008F917F916F915F914F913F912F910F90E2
:104FA0000FBE0F901F9018951F920F920FB60F9281
:104FB00011242F933F934F935F936F937F938F931E
:104FC0009F93AF93BF93EF93FF93E0911901F091FB
:104FD0001A010995FF91EF91BF91AF919F918F9128
:104FE0007F916F915F914F913F912F910F900FBEE5
:104FF0000F901F9018951F920F920FB60F921124C9
:105000002F933F934F935F936F937F938F939F93D0
:10501000AF93BF93EF93FF93E0911B01F0911C01BD
:105020000995FF91EF91BF91AF919F918F917F91E2
:105030006F915F914F913F912F910F900FBE0F9005
:105040001F9018951F920F920FB60F9211242F9355
:105050003F934F935F936F937F938F939F93AF9300
:10506000BF93EF93FF93E0911D01F0911E0109950D
:10507000FF91EF91BF91AF919F918F917F916F9130
:105080005F914F913F912F910F900FBE0F901F9006
:105090001895089508950E9415290E944A2882EEC5
:1050A00096E00E9402270E943404C0E0D0E00E94F3
:1050B00060032097E1F30E940000F9CF1F920F9246
:1050C0000FB60F9211242F933F938F939F93AF931B
:1050D000BF938091ED069091EE06A091EF06B091FE
:1050E000F0063091EC0623E0230F2D3720F40196D3
:1050F000A11DB11D05C026E8230F0296A11DB11DFB
:105100002093EC068093ED069093EE06A093EF06B5
:10511000B093F0068091F1069091F206A091F3060B
:10512000B091F4060196A11DB11D8093F1069093F4
:10513000F206A093F306B093F406BF91AF919F914E
:105140008F913F912F910F900FBE0F901F90189548
:105150002FB7F8946091ED067091EE068091EF06FE
:105160009091F0062FBF08953FB7F8948091F10613
:105170009091F206A091F306B091F40626B5A89B93
:1051800005C02F3F19F00196A11DB11D3FBFBA2FD9
:10519000A92F982F8827820F911DA11DB11DBC0139
:1051A000CD0142E0660F771F881F991F4A95D1F7FE
:1051B00008958F929F92AF92BF92CF92DF92EF921B
:1051C000FF926B017C010E94B4284B015C01C11469
:1051D000D104E104F10401F10E9449280E94B4289D
:1051E000DC01CB0188199909AA09BB09883E9340C3
:1051F000A105B10560F321E0C21AD108E108F10868
:1052000088EE880E83E0981EA11CB11CC114D10445
:10521000E104F10419F7DBCFFF90EF90DF90CF901E
:10522000BF90AF909F908F900895789484B58260DE
:1052300084BD84B5816084BD85B5826085BD85B53A
:10524000816085BDEEE6F0E0808181608083E1E8E9
:10525000F0E0108280818260808380818160808321
:10526000E0E8F0E0808181608083E1E9F0E0808126
:1052700082608083808181608083E0E9F0E08081CA
:1052800081608083E1ECF0E08081846080838081B4
:1052900082608083808181608083E3ECF0E08081A4
:1052A00081608083E0ECF0E0808182608083E2ECCA
:1052B000F0E0808181608083EAE7F0E080818460B3
:1052C000808380818260808380818160808380810F
:1052D00080688083089590E0FC013197EF30F105FC
:1052E000B0F5EA5AFF4F0C94762D809180008F77AD
:1052F00003C0809180008F7D80938000089580910D
:105300008000877FF9CF84B58F7702C084B58F7D09
:1053100084BD0895809190008F7707C080919000A0
:105320008F7D03C080919000877F809390000895C7
:105330008091C0008F7703C08091C0008F7D8093E3
:10534000C00008958091C200877F8093C2000895B5
:10535000CF93DF9390E0FC01EC57FC4F2491FC01CC
:10536000ED55FC4F8491882361F190E0880F991FDF
:10537000FC01E252FC4FC591D491FC01E053FC4F7B
:10538000A591B491611109C09FB7F89488812095C7
:1053900082238883EC912E230BC0623061F49FB787
:1053A000F8948881322F309583238883EC912E2BBB
:1053B0002C939FBF06C08FB7F894E8812E2B2883CB
:1053C0008FBFDF91CF9108951F93CF93DF93282F45
:1053D00030E0F901EB59FC4F8491F901EC57FC4F97
:1053E000D491F901ED55FC4FC491CC23C1F0162F97
:1053F00081110E946B29EC2FF0E0EE0FFF1FE053AC
:10540000FC4FA591B4919FB7F894111104C08C91F1
:10541000D095D82302C0EC91DE2BDC939FBFDF91A7
:10542000CF911F910895CF93DF93282F30E0F9019A
:10543000EB59FC4F8491F901EC57FC4FD491F901E1
:10544000ED55FC4FC491CC2391F081110E946B2942
:10545000EC2FF0E0EE0FFF1FEE53FC4FA591B4913F
:10546000EC91ED2381E090E021F480E002C080E047
:1054700090E0DF91CF910895EF92FF920F931F93E9
:10548000CF93DF937B01FC01C281D38100E010E068
:10549000209781F0E881F9810280F381E02DB70146
:1054A000CE01099597FD08C0080F191F0884D985FA
:1054B000C02DEECFC80102C08FEF9FEFDF91CF91DB
:1054C0001F910F91FF90EF9008950F931F93CF932B
:1054D000DF938B01FC01C281D381209771F0E881B9
:1054E000F9810480F581E02DB801CE01099500977E
:1054F00031F40884D985C02DF0CF80E090E0DF91B1
:10550000CF911F910F9108950F931F93CF93DF9326
:105510008B01FC01C281D381209771F0E881F98170
:105520000680F781E02DB801CE010995080F111D05
:105530000884D985C02DF0CFF8011082DF91CF917A
:105540001F910F9108950F931F93CF93DF938B01BA
:10555000FC01C281D381209771F0E881F98101902B
:10556000F081E02DB801CE010995811105C00884B4
:10557000D985C02DF0CF80E0DF91CF911F910F91A1
:1055800008958091F90681110DC082E08093F5069F
:1055900084E08093F6061092F8061092F70681E0F8
:1055A0008093F90685EF96E008955058BB27AA2707
:1055B0000E94ED2A0C943E2C0E94302C38F00E9460
:1055C000372C20F039F49F3F19F426F40C942D2C3D
:1055D0000EF4E095E7FB0C94272CE92F0E944F2C4A
:1055E00058F3BA17620773078407950720F079F418
:1055F000A6F50C94712C0EF4E0950B2EBA2FA02D6D
:105600000B01B90190010C01CA01A0011124FF276F
:10561000591B99F0593F50F4503E68F11A16F0406A
:10562000A22F232F342F4427585FF3CF4695379569
:105630002795A795F0405395C9F77EF41F16BA0B2E
:10564000620B730B840BBAF09150A1F0FF0FBB1FDC
:10565000661F771F881FC2F70EC0BA0F621F731F25
:10566000841F48F4879577956795B795F7959E3F82
:1056700008F0B0CF9395880F08F09927EE0F979513
:10568000879508950E94562B0C943E2C0E94372C2F
:1056900058F00E94302C40F029F45F3F29F00C9420
:1056A000272C51110C94722C0C942D2C0E944F2CF1
:1056B00068F39923B1F3552391F3951B550BBB2741
:1056C000AA2762177307840738F09F5F5F4F220F86
:1056D000331F441FAA1FA9F335D00E2E3AF0E0E87D
:1056E00032D091505040E695001CCAF72BD0FE2FC7
:1056F00029D0660F771F881FBB1F2617370748075B
:10570000AB07B0E809F0BB0B802DBF01FF27935812
:105710005F4F3AF09E3F510578F00C94272C0C9483
:10572000722C5F3FE4F3983ED4F3869577956795A6
:10573000B795F7959F5FC9F7880F911D9695879547
:1057400097F90895E1E0660F771F881FBB1F621766
:1057500073078407BA0720F0621B730B840BBA0B24
:10576000EE1F88F7E09508950E94BB2B6894B11155
:105770000C94722C08950E94572C88F09F5798F033
:10578000B92F9927B751B0F0E1F0660F771F881F46
:10579000991F1AF0BA95C9F714C0B13091F00E9460
:1057A000712CB1E008950C94712C672F782F882705
:1057B000B85F39F0B93FCCF3869577956795B39587
:1057C000D9F73EF490958095709561957F4F8F4FF6
:1057D0009F4F0895E89409C097FB3EF490958095FB
:1057E000709561957F4F8F4F9F4F9923A9F0F92FA7
:1057F00096E9BB279395F695879577956795B79525
:10580000F111F8CFFAF4BB0F11F460FF1BC06F5F0A
:105810007F4F8F4F9F4F16C0882311F096E911C01C
:10582000772321F09EE8872F762F05C0662371F03D
:1058300096E8862F70E060E02AF09A95660F771F51
:10584000881FDAF7880F9695879597F9089597F945
:105850009F6780E870E060E008959FEF80EC089516
:1058600000240A941616170618060906089500243F
:105870000A9412161306140605060895092E0394B9
:10588000000C11F4882352F0BB0F40F4BF2B11F42D
:1058900060FF04C06F5F7F4F8F4F9F4F089557FD8C
:1058A0009058440F551F59F05F3F71F04795880F8E
:1058B00097FB991F61F09F3F79F087950895121625
:1058C00013061406551FF2CF4695F1DF08C01616D1
:1058D00017061806991FF1CF869571056105089482
:1058E0000895E894BB2766277727CB0197F9089599
:1058F0000E948B2C0C943E2C0E94302C38F00E947D
:10590000372C20F0952311F00C94272C0C942D2C7F
:1059100011240C94722C0E944F2C70F3959FC1F3AC
:10592000950F50E0551F629FF001729FBB27F00D4D
:10593000B11D639FAA27F00DB11DAA1F649F6627A2
:10594000B00DA11D661F829F2227B00DA11D621FF1
:10595000739FB00DA11D621F839FA00D611D221FAB
:10596000749F3327A00D611D231F849F600D211D8F
:10597000822F762F6A2F11249F5750409AF0F1F012
:1059800088234AF0EE0FFF1FBB1F661F771F881F7B
:1059900091505040A9F79E3F510580F00C94272C60
:1059A0000C94722C5F3FE4F3983ED4F38695779580
:1059B0006795B795F795E7959F5FC1F7FE2B880F21
:1059C000911D9695879597F9089519F416F40C94FE
:1059D0002D2C0C942B2D0E94572CB8F39923C9F32E
:1059E000B6F39F57550B87FF0E94392D0024A0E680
:1059F00040EA900180585695979528F4805C660F90
:105A0000771F881F20F026173707480730F4621BDE
:105A1000730B840B202931294A2BA69517940794E0
:105A2000202531254A2758F7660F771F881F20F059
:105A300026173707480730F4620B730B840B200DD1
:105A4000311D411DA09581F7B901842F9158880F10
:105A50009695879508959F3F31F0915020F4879552
:105A600077956795B795880F911D9695879597F9C6
:105A7000089591505040660F771F881FD2F7089500
:105A8000AA1BBB1B51E107C0AA1FBB1FA617B70764
:105A900010F0A61BB70B881F991F5A95A9F7809580
:105AA0009095BC01CD010895A1E21A2EAA1BBB1B43
:105AB000FD010DC0AA1FBB1FEE1FFF1FA217B307DA
:105AC000E407F50720F0A21BB30BE40BF50B661FF0
:105AD000771F881F991F1A9469F7609570958095B4
